{
  "contractName": "Property",
  "abi": [
    {
      "constant": true,
      "inputs": [],
      "name": "propertiesCount",
      "outputs": [
        {
          "name": "",
          "type": "uint256"
        }
      ],
      "payable": false,
      "stateMutability": "view",
      "type": "function"
    },
    {
      "constant": true,
      "inputs": [
        {
          "name": "",
          "type": "uint256"
        }
      ],
      "name": "properties",
      "outputs": [
        {
          "name": "id",
          "type": "uint256"
        },
        {
          "name": "name",
          "type": "string"
        },
        {
          "name": "value_paid",
          "type": "uint256"
        },
        {
          "name": "last_payment_month",
          "type": "uint256"
        },
        {
          "name": "last_payment_year",
          "type": "uint256"
        },
        {
          "name": "last_payment_owner",
          "type": "address"
        }
      ],
      "payable": false,
      "stateMutability": "view",
      "type": "function"
    },
    {
      "inputs": [],
      "payable": false,
      "stateMutability": "nonpayable",
      "type": "constructor"
    },
    {
      "constant": false,
      "inputs": [
        {
          "name": "_propertyId",
          "type": "uint256"
        },
        {
          "name": "_amount",
          "type": "uint256"
        },
        {
          "name": "_month",
          "type": "uint256"
        },
        {
          "name": "_year",
          "type": "uint256"
        }
      ],
      "name": "payment",
      "outputs": [],
      "payable": false,
      "stateMutability": "nonpayable",
      "type": "function"
    }
  ],
  "bytecode": "0x608060405234801561001057600080fd5b506100556040518060400160405280600981526020017f496dc3b376656c2031000000000000000000000000000000000000000000000081525061009e60201b60201c565b6100996040518060400160405280600981526020017f496dc3b376656c2032000000000000000000000000000000000000000000000081525061009e60201b60201c565b610244565b6001600081548092919060010191905055506040518060c001604052806001548152602001828152602001600081526020016000815260200160008152602001600073ffffffffffffffffffffffffffffffffffffffff16815250600080600154815260200190815260200160002060008201518160000155602082015181600101908051906020019061013392919061019f565b5060408201518160020155606082015181600301556080820151816004015560a08201518160050160006101000a81548173ffffffffffffffffffffffffffffffffffffffff021916908373ffffffffffffffffffffffffffffffffffffffff16021790555090505050565b828054600181600116156101000203166002900490600052602060002090601f016020900481019282601f106101e057805160ff191683800117855561020e565b8280016001018555821561020e579182015b8281111561020d5782518255916020019190600101906101f2565b5b50905061021b919061021f565b5090565b61024191905b8082111561023d576000816000905550600101610225565b5090565b90565b6103b7806102536000396000f3fe608060405234801561001057600080fd5b50600436106100415760003560e01c806311447e8714610046578063312ac5b714610064578063f7b10808146100b0575b600080fd5b61004e6101a6565b6040518082815260200191505060405180910390f35b6100ae6004803603608081101561007a57600080fd5b81019080803590602001909291908035906020019092919080359060200190929190803590602001909291905050506101ac565b005b6100dc600480360360208110156100c657600080fd5b8101908080359060200190929190505050610297565b60405180878152602001806020018681526020018581526020018481526020018373ffffffffffffffffffffffffffffffffffffffff1673ffffffffffffffffffffffffffffffffffffffff168152602001828103825287818151815260200191508051906020019080838360005b8381101561016657808201518184015260208101905061014b565b50505050905090810190601f1680156101935780820380516001836020036101000a031916815260200191505b5097505050505050505060405180910390f35b60015481565b806000808681526020019081526020016000206004015411156101ce57600080fd5b8160008086815260200190815260200160002060030154106101ef57600080fd5b82600080868152602001908152602001600020600201819055503360008086815260200190815260200160002060050160006101000a81548173ffffffffffffffffffffffffffffffffffffffff021916908373ffffffffffffffffffffffffffffffffffffffff1602179055508060008086815260200190815260200160002060040181905550816000808681526020019081526020016000206003018190555050505050565b6000602052806000526040600020600091509050806000015490806001018054600181600116156101000203166002900480601f0160208091040260200160405190810160405280929190818152602001828054600181600116156101000203166002900480156103495780601f1061031e57610100808354040283529160200191610349565b820191906000526020600020905b81548152906001019060200180831161032c57829003601f168201915b5050505050908060020154908060030154908060040154908060050160009054906101000a900473ffffffffffffffffffffffffffffffffffffffff1690508656fea165627a7a72305820d9caa158befae584659f1cab177f6fce653dc765148d5e28f59cdc78ca0326740029",
  "source": "pragma solidity ^0.5.0;\r\n\r\ncontract Property {\r\n\t\r\n\t//Model\r\n\tstruct PropertyStruct {\r\n\t\tuint id;\r\n\t\tstring name;\r\n\t\tuint value_paid;\r\n\t\tuint last_payment_month;\r\n\t\tuint last_payment_year;\r\n\t\taddress last_payment_owner;\r\n\t}\r\n\tmapping(uint => PropertyStruct) public properties;\r\n\r\n\tuint public propertiesCount;\r\n\r\n\tconstructor () public {\r\n\t\taddProperty(\"Imóvel 1\");\r\n\t\taddProperty(\"Imóvel 2\");\r\n\t}\r\n\r\n\tfunction addProperty (string memory _name) private {\r\n\t\tpropertiesCount ++;\r\n\t\tproperties[propertiesCount] = PropertyStruct(propertiesCount, _name, 0, 0, 0, address(0));\r\n\t}\r\n\r\n\tfunction payment (uint _propertyId, uint _amount, uint _month, uint _year) public {\r\n\t\trequire(properties[_propertyId].last_payment_year <= _year);\r\n\t\trequire(properties[_propertyId].last_payment_month < _month);\r\n\r\n\t\tproperties[_propertyId].value_paid = _amount;\r\n\t\tproperties[_propertyId].last_payment_owner = msg.sender;\r\n\t\tproperties[_propertyId].last_payment_year = _year;\r\n\t\tproperties[_propertyId].last_payment_month = _month;\r\n\t}\r\n}",
  "sourcePath": "C:/Users/steph/IdeaProjects/Trabalho/contracts/Property.sol",
  "compiler": {
    "name": "solc",
    "version": "0.5.8+commit.23d335f2.Emscripten.clang"
  },
  "schemaVersion": "3.0.16",
  "updatedAt": "2019-10-25T07:03:45.192Z",
  "devdoc": {
    "methods": {}
  },
  "userdoc": {
    "methods": {}
  }
}