{
  "contractName": "Property",
  "abi": [
    {
      "constant": true,
      "inputs": [],
      "name": "propertiesCount",
      "outputs": [
        {
          "name": "",
          "type": "uint256"
        }
      ],
      "payable": false,
      "stateMutability": "view",
      "type": "function"
    },
    {
      "constant": true,
      "inputs": [
        {
          "name": "",
          "type": "uint256"
        }
      ],
      "name": "properties",
      "outputs": [
        {
          "name": "id",
          "type": "uint256"
        },
        {
          "name": "name",
          "type": "string"
        },
        {
          "name": "value_paid",
          "type": "uint256"
        }
      ],
      "payable": false,
      "stateMutability": "view",
      "type": "function"
    },
    {
      "inputs": [],
      "payable": false,
      "stateMutability": "nonpayable",
      "type": "constructor"
    }
  ],
  "bytecode": "0x608060405234801561001057600080fd5b506100556040518060400160405280600981526020017f496dc3b376656c2031000000000000000000000000000000000000000000000081525061009e60201b60201c565b6100996040518060400160405280600981526020017f496dc3b376656c2032000000000000000000000000000000000000000000000081525061009e60201b60201c565b6101be565b6001600081548092919060010191905055506040518060600160405280600154815260200182815260200160008152506000806001548152602001908152602001600020600082015181600001556020820151816001019080519060200190610108929190610119565b506040820151816002015590505050565b828054600181600116156101000203166002900490600052602060002090601f016020900481019282601f1061015a57805160ff1916838001178555610188565b82800160010185558215610188579182015b8281111561018757825182559160200191906001019061016c565b5b5090506101959190610199565b5090565b6101bb91905b808211156101b757600081600090555060010161019f565b5090565b90565b610202806101cd6000396000f3fe608060405234801561001057600080fd5b50600436106100365760003560e01c806311447e871461003b578063f7b1080814610059575b600080fd5b61004361010e565b6040518082815260200191505060405180910390f35b6100856004803603602081101561006f57600080fd5b8101908080359060200190929190505050610114565b6040518084815260200180602001838152602001828103825284818151815260200191508051906020019080838360005b838110156100d15780820151818401526020810190506100b6565b50505050905090810190601f1680156100fe5780820380516001836020036101000a031916815260200191505b5094505050505060405180910390f35b60015481565b6000602052806000526040600020600091509050806000015490806001018054600181600116156101000203166002900480601f0160208091040260200160405190810160405280929190818152602001828054600181600116156101000203166002900480156101c65780601f1061019b576101008083540402835291602001916101c6565b820191906000526020600020905b8154815290600101906020018083116101a957829003601f168201915b505050505090806002015490508356fea165627a7a7230582073f03388094f8d94064860ccfcbdac3634c4fe8ac510abf38ce94b270886a6050029",
  "source": "pragma solidity ^0.5.0;\r\n\r\ncontract Property {\r\n\t\r\n\t//Model\r\n\tstruct PropertyStruct {\r\n\t\tuint id;\r\n\t\tstring name;\r\n\t\tuint value_paid;\r\n\t}\r\n\r\n\t//Store\r\n\t//Fetch\r\n\tmapping(uint => PropertyStruct) public properties;\r\n\r\n\t//Store value paid\r\n\tuint public propertiesCount;\r\n\r\n\tconstructor () public {\r\n\t\taddProperty(\"Imóvel 1\");\r\n\t\taddProperty(\"Imóvel 2\");\r\n\t}\r\n\r\n\tfunction addProperty (string memory _name) private {\r\n\t\tpropertiesCount ++;\r\n\t\tproperties[propertiesCount] = PropertyStruct(propertiesCount, _name, 0);\r\n\t}\r\n}",
  "sourcePath": "C:/Users/steph/IdeaProjects/Trabalho/contracts/Property.sol",
  "compiler": {
    "name": "solc",
    "version": "0.5.8+commit.23d335f2.Emscripten.clang"
  },
  "schemaVersion": "3.0.16",
  "updatedAt": "2019-10-25T05:11:20.767Z",
  "devdoc": {
    "methods": {}
  },
  "userdoc": {
    "methods": {}
  }
}